{
  "contractName": "Store",
  "abi": [
    {
      "constant": true,
      "inputs": [
        {
          "name": "",
          "type": "uint256"
        }
      ],
      "name": "products",
      "outputs": [
        {
          "name": "id",
          "type": "uint256"
        },
        {
          "name": "price",
          "type": "uint256"
        },
        {
          "name": "name",
          "type": "string"
        },
        {
          "name": "imageUrl",
          "type": "string"
        },
        {
          "name": "bought",
          "type": "bool"
        },
        {
          "name": "owner",
          "type": "address"
        }
      ],
      "payable": false,
      "stateMutability": "view",
      "type": "function",
      "signature": "0x7acc0b20"
    },
    {
      "constant": true,
      "inputs": [],
      "name": "productCount",
      "outputs": [
        {
          "name": "",
          "type": "uint256"
        }
      ],
      "payable": false,
      "stateMutability": "view",
      "type": "function",
      "signature": "0xe0f6ef87"
    },
    {
      "inputs": [],
      "payable": false,
      "stateMutability": "nonpayable",
      "type": "constructor",
      "signature": "constructor"
    },
    {
      "constant": false,
      "inputs": [
        {
          "name": "_price",
          "type": "uint256"
        },
        {
          "name": "_name",
          "type": "string"
        },
        {
          "name": "_imageUrl",
          "type": "string"
        }
      ],
      "name": "uploadProduct",
      "outputs": [],
      "payable": false,
      "stateMutability": "nonpayable",
      "type": "function",
      "signature": "0xeade7267"
    }
  ],
  "bytecode": "0x60806040526000805534801561001457600080fd5b5061009a600a6040805190810160405280600681526020017f69776174636800000000000000000000000000000000000000000000000000008152506040805190810160405280601081526020017f696d616765732f77617463682e706e6700000000000000000000000000000000815250610124640100000000026401000000009004565b61011f60086040805190810160405280600881526020017f62726163656c65740000000000000000000000000000000000000000000000008152506040805190810160405280601381526020017f696d616765732f62726163656c65742e706e6700000000000000000000000000815250610124640100000000026401000000009004565b610290565b6000805460019081018083556040805160c081018252828152602080820189815282840189815260608401899052608084018890523360a0850181905295885286835293909620825181559551948601949094559051805192949193919261019292600285019201906101f5565b50606082015180516101ae9160038401916020909101906101f5565b5060808201516004909101805460a090930151600160a060020a03166101000261010060a860020a031992151560ff19909416939093179190911691909117905550505050565b828054600181600116156101000203166002900490600052602060002090601f016020900481019282601f1061023657805160ff1916838001178555610263565b82800160010185558215610263579182015b82811115610263578251825591602001919060010190610248565b5061026f929150610273565b5090565b61028d91905b8082111561026f5760008155600101610279565b90565b61064a8061029f6000396000f3fe6080604052600436106100565763ffffffff7c01000000000000000000000000000000000000000000000000000000006000350416637acc0b20811461005b578063e0f6ef87146101af578063eade7267146101d6575b600080fd5b34801561006757600080fd5b506100856004803603602081101561007e57600080fd5b5035610319565b604051808781526020018681526020018060200180602001851515151581526020018473ffffffffffffffffffffffffffffffffffffffff1673ffffffffffffffffffffffffffffffffffffffff168152602001838103835287818151815260200191508051906020019080838360005b8381101561010e5781810151838201526020016100f6565b50505050905090810190601f16801561013b5780820380516001836020036101000a031916815260200191505b50838103825286518152865160209182019188019080838360005b8381101561016e578181015183820152602001610156565b50505050905090810190601f16801561019b5780820380516001836020036101000a031916815260200191505b509850505050505050505060405180910390f35b3480156101bb57600080fd5b506101c4610492565b60408051918252519081900360200190f35b3480156101e257600080fd5b50610317600480360360608110156101f957600080fd5b8135919081019060408101602082013564010000000081111561021b57600080fd5b82018360208201111561022d57600080fd5b8035906020019184600183028401116401000000008311171561024f57600080fd5b91908080601f01602080910402602001604051908101604052809392919081815260200183838082843760009201919091525092959493602081019350359150506401000000008111156102a257600080fd5b8201836020820111156102b457600080fd5b803590602001918460018302840111640100000000831117156102d657600080fd5b91908080601f016020809104026020016040519081016040528093929190818152602001838380828437600092019190915250929550610498945050505050565b005b6001602052806000526040600020600091509050806000015490806001015490806002018054600181600116156101000203166002900480601f0160208091040260200160405190810160405280929190818152602001828054600181600116156101000203166002900480156103d15780601f106103a6576101008083540402835291602001916103d1565b820191906000526020600020905b8154815290600101906020018083116103b457829003601f168201915b5050505060038301805460408051602060026001851615610100026000190190941693909304601f81018490048402820184019092528181529495949350908301828280156104615780601f1061043657610100808354040283529160200191610461565b820191906000526020600020905b81548152906001019060200180831161044457829003601f168201915b5050506004909301549192505060ff81169073ffffffffffffffffffffffffffffffffffffffff6101009091041686565b60005481565b6000805460019081018083556040805160c081018252828152602080820189815282840189815260608401899052608084018890523360a085018190529588528683529390962082518155955194860194909455905180519294919391926105069260028501920190610583565b5060608201518051610522916003840191602090910190610583565b5060808201516004909101805460a09093015173ffffffffffffffffffffffffffffffffffffffff166101000274ffffffffffffffffffffffffffffffffffffffff001992151560ff19909416939093179190911691909117905550505050565b828054600181600116156101000203166002900490600052602060002090601f016020900481019282601f106105c457805160ff19168380011785556105f1565b828001600101855582156105f1579182015b828111156105f15782518255916020019190600101906105d6565b506105fd929150610601565b5090565b61061b91905b808211156105fd5760008155600101610607565b9056fea165627a7a7230582054a54736af974d1a38b073d5b0b5108f98502a8634bc9ff12b0b898d3ac5d0f30029",
  "source": "pragma solidity ^0.5.0;\r\n\r\ncontract Store {\r\n  uint public productCount = 0;\r\n\r\n  struct Product {\r\n    uint id;\r\n    uint price;\r\n    string name;\r\n    string imageUrl;\r\n    bool bought;\r\n    address owner;\r\n  }\r\n\r\n  mapping(uint => Product) public products;\r\n\r\n  constructor() public {\r\n    uploadProduct(10, \"iwatch\", \"images/watch.png\");\r\n    uploadProduct(8, \"bracelet\", \"images/bracelet.png\");\r\n  }\r\n\r\n  function uploadProduct(uint _price, string memory _name, string memory _imageUrl) public {\r\n    productCount ++;\r\n    address _owner = msg.sender;\r\n    products[productCount] = Product(productCount, _price, _name, _imageUrl, false, _owner);\r\n  }\r\n\r\n}",
  "sourcePath": "/mnt/c/Users/CHIDIADI/Desktop/dapp/contracts/Store.sol",
  "compiler": {
    "name": "solc",
    "version": "0.5.0+commit.1d4f565a.Emscripten.clang"
  },
  "schemaVersion": "3.0.1",
  "updatedAt": "2023-07-06T09:01:30.688Z",
  "devdoc": {
    "methods": {}
  },
  "userdoc": {
    "methods": {}
  }
}